{
  "_format": "hh-sol-artifact-1",
  "contractName": "Attendance",
  "sourceName": "contracts/Attendance.sol",
  "abi": [
    {
      "inputs": [],
      "stateMutability": "nonpayable",
      "type": "constructor"
    },
    {
      "anonymous": false,
      "inputs": [
        {
          "indexed": true,
          "internalType": "address",
          "name": "teacher",
          "type": "address"
        },
        {
          "indexed": false,
          "internalType": "string",
          "name": "subject",
          "type": "string"
        },
        {
          "indexed": false,
          "internalType": "string",
          "name": "className",
          "type": "string"
        },
        {
          "indexed": false,
          "internalType": "address",
          "name": "student",
          "type": "address"
        },
        {
          "indexed": false,
          "internalType": "uint256",
          "name": "date",
          "type": "uint256"
        },
        {
          "indexed": false,
          "internalType": "bool",
          "name": "present",
          "type": "bool"
        }
      ],
      "name": "AttendanceMarked",
      "type": "event"
    },
    {
      "inputs": [],
      "name": "admin",
      "outputs": [
        {
          "internalType": "address",
          "name": "",
          "type": "address"
        }
      ],
      "stateMutability": "view",
      "type": "function"
    },
    {
      "inputs": [],
      "name": "getRecordsCount",
      "outputs": [
        {
          "internalType": "uint256",
          "name": "",
          "type": "uint256"
        }
      ],
      "stateMutability": "view",
      "type": "function"
    },
    {
      "inputs": [
        {
          "internalType": "string",
          "name": "subject",
          "type": "string"
        },
        {
          "internalType": "string",
          "name": "className",
          "type": "string"
        },
        {
          "internalType": "address",
          "name": "student",
          "type": "address"
        },
        {
          "internalType": "uint256",
          "name": "date",
          "type": "uint256"
        },
        {
          "internalType": "bool",
          "name": "present",
          "type": "bool"
        }
      ],
      "name": "markAttendance",
      "outputs": [],
      "stateMutability": "nonpayable",
      "type": "function"
    },
    {
      "inputs": [
        {
          "internalType": "uint256",
          "name": "",
          "type": "uint256"
        }
      ],
      "name": "records",
      "outputs": [
        {
          "internalType": "address",
          "name": "teacher",
          "type": "address"
        },
        {
          "internalType": "string",
          "name": "subject",
          "type": "string"
        },
        {
          "internalType": "string",
          "name": "className",
          "type": "string"
        },
        {
          "internalType": "address",
          "name": "student",
          "type": "address"
        },
        {
          "internalType": "uint256",
          "name": "date",
          "type": "uint256"
        },
        {
          "internalType": "bool",
          "name": "present",
          "type": "bool"
        }
      ],
      "stateMutability": "view",
      "type": "function"
    }
  ],
  "bytecode": "0x608060405234801561001057600080fd5b50336000806101000a81548173ffffffffffffffffffffffffffffffffffffffff021916908373ffffffffffffffffffffffffffffffffffffffff160217905550610c4d806100606000396000f3fe608060405234801561001057600080fd5b506004361061004c5760003560e01c80633446106714610051578063505158bb14610086578063a4efbeb0146100a4578063f851a440146100c0575b600080fd5b61006b600480360381019061006691906104cb565b6100de565b60405161007d969594939291906105f3565b60405180910390f35b61008e610287565b60405161009b9190610662565b60405180910390f35b6100be60048036038101906100b9919061080a565b610294565b005b6100c861045d565b6040516100d591906108bd565b60405180910390f35b600181815481106100ee57600080fd5b90600052602060002090600602016000915090508060000160009054906101000a900473ffffffffffffffffffffffffffffffffffffffff169080600101805461013790610907565b80601f016020809104026020016040519081016040528092919081815260200182805461016390610907565b80156101b05780601f10610185576101008083540402835291602001916101b0565b820191906000526020600020905b81548152906001019060200180831161019357829003601f168201915b5050505050908060020180546101c590610907565b80601f01602080910402602001604051908101604052809291908181526020018280546101f190610907565b801561023e5780601f106102135761010080835404028352916020019161023e565b820191906000526020600020905b81548152906001019060200180831161022157829003601f168201915b5050505050908060030160009054906101000a900473ffffffffffffffffffffffffffffffffffffffff16908060040154908060050160009054906101000a900460ff16905086565b6000600180549050905090565b60016040518060c001604052803373ffffffffffffffffffffffffffffffffffffffff1681526020018781526020018681526020018573ffffffffffffffffffffffffffffffffffffffff168152602001848152602001831515815250908060018154018082558091505060019003906000526020600020906006020160009091909190915060008201518160000160006101000a81548173ffffffffffffffffffffffffffffffffffffffff021916908373ffffffffffffffffffffffffffffffffffffffff16021790555060208201518160010190816103769190610ae4565b50604082015181600201908161038c9190610ae4565b5060608201518160030160006101000a81548173ffffffffffffffffffffffffffffffffffffffff021916908373ffffffffffffffffffffffffffffffffffffffff1602179055506080820151816004015560a08201518160050160006101000a81548160ff02191690831515021790555050503373ffffffffffffffffffffffffffffffffffffffff167f505d950f3a6bbf836e6d5cafc36ac7438b82f50a4e30682feaa0227d9e4eb1b3868686868660405161044e959493929190610bb6565b60405180910390a25050505050565b60008054906101000a900473ffffffffffffffffffffffffffffffffffffffff1681565b6000604051905090565b600080fd5b600080fd5b6000819050919050565b6104a881610495565b81146104b357600080fd5b50565b6000813590506104c58161049f565b92915050565b6000602082840312156104e1576104e061048b565b5b60006104ef848285016104b6565b91505092915050565b600073ffffffffffffffffffffffffffffffffffffffff82169050919050565b6000610523826104f8565b9050919050565b61053381610518565b82525050565b600081519050919050565b600082825260208201905092915050565b60005b83811015610573578082015181840152602081019050610558565b60008484015250505050565b6000601f19601f8301169050919050565b600061059b82610539565b6105a58185610544565b93506105b5818560208601610555565b6105be8161057f565b840191505092915050565b6105d281610495565b82525050565b60008115159050919050565b6105ed816105d8565b82525050565b600060c082019050610608600083018961052a565b818103602083015261061a8188610590565b9050818103604083015261062e8187610590565b905061063d606083018661052a565b61064a60808301856105c9565b61065760a08301846105e4565b979650505050505050565b600060208201905061067760008301846105c9565b92915050565b600080fd5b600080fd5b7f4e487b7100000000000000000000000000000000000000000000000000000000600052604160045260246000fd5b6106bf8261057f565b810181811067ffffffffffffffff821117156106de576106dd610687565b5b80604052505050565b60006106f1610481565b90506106fd82826106b6565b919050565b600067ffffffffffffffff82111561071d5761071c610687565b5b6107268261057f565b9050602081019050919050565b82818337600083830152505050565b600061075561075084610702565b6106e7565b90508281526020810184848401111561077157610770610682565b5b61077c848285610733565b509392505050565b600082601f8301126107995761079861067d565b5b81356107a9848260208601610742565b91505092915050565b6107bb81610518565b81146107c657600080fd5b50565b6000813590506107d8816107b2565b92915050565b6107e7816105d8565b81146107f257600080fd5b50565b600081359050610804816107de565b92915050565b600080600080600060a086880312156108265761082561048b565b5b600086013567ffffffffffffffff81111561084457610843610490565b5b61085088828901610784565b955050602086013567ffffffffffffffff81111561087157610870610490565b5b61087d88828901610784565b945050604061088e888289016107c9565b935050606061089f888289016104b6565b92505060806108b0888289016107f5565b9150509295509295909350565b60006020820190506108d2600083018461052a565b92915050565b7f4e487b7100000000000000000000000000000000000000000000000000000000600052602260045260246000fd5b6000600282049050600182168061091f57607f821691505b602082108103610932576109316108d8565b5b50919050565b60008190508160005260206000209050919050565b60006020601f8301049050919050565b600082821b905092915050565b60006008830261099a7fffffffffffffffffffffffffffffffffffffffffffffffffffffffffffffffff8261095d565b6109a4868361095d565b95508019841693508086168417925050509392505050565b6000819050919050565b60006109e16109dc6109d784610495565b6109bc565b610495565b9050919050565b6000819050919050565b6109fb836109c6565b610a0f610a07826109e8565b84845461096a565b825550505050565b600090565b610a24610a17565b610a2f8184846109f2565b505050565b5b81811015610a5357610a48600082610a1c565b600181019050610a35565b5050565b601f821115610a9857610a6981610938565b610a728461094d565b81016020851015610a81578190505b610a95610a8d8561094d565b830182610a34565b50505b505050565b600082821c905092915050565b6000610abb60001984600802610a9d565b1980831691505092915050565b6000610ad48383610aaa565b9150826002028217905092915050565b610aed82610539565b67ffffffffffffffff811115610b0657610b05610687565b5b610b108254610907565b610b1b828285610a57565b600060209050601f831160018114610b4e5760008415610b3c578287015190505b610b468582610ac8565b865550610bae565b601f198416610b5c86610938565b60005b82811015610b8457848901518255600182019150602085019450602081019050610b5f565b86831015610ba15784890151610b9d601f891682610aaa565b8355505b6001600288020188555050505b505050505050565b600060a0820190508181036000830152610bd08188610590565b90508181036020830152610be48187610590565b9050610bf3604083018661052a565b610c0060608301856105c9565b610c0d60808301846105e4565b969550505050505056fea2646970667358221220d28120fefe5678bf17e75ee7c961faa88e490629a8244e07e061fbed8288c88564736f6c63430008180033",
  "linkReferences": {},
  "deployedLinkReferences": {}
}